:020000040800F2
:1000000000000220990E0008E90E0008E90E000821
:10001000E90E0008E90E0008E90E000800000000E3
:10002000000000000000000000000000E90E0008D1
:10003000E90E000800000000E90E0008210D00088C
:10004000E90E0008E90E0008E90E0008E90E0008B4
:10005000E90E0008E90E0008E90E0008E90E0008A4
:10006000E90E0008E90E0008E90E0008E90E000894
:10007000E90E0008E90E0008E90E0008E90E000884
:10008000E90E0008E90E0008E90E0008E90E000874
:10009000E90E0008E90E0008E90E0008E90E000864
:1000A000E90E0008E90E0008E90E0008E90E000854
:1000B000E90E0008E90E0008E90E0008E90E000844
:1000C000E90E0008E90E0008E90E0008E90E000834
:1000D000E90E0008E90E0008E90E0008E90E000824
:1000E000E90E0008E90E0008E90E0008E90E000814
:1000F000E90E0008E90E0008E90E0008E90E000804
:10010000E90E0008E90E0008E90E0008E90E0008F3
:10011000E90E0008E90E0008E90E0008E90E0008E3
:10012000E90E0008E90E0008E90E0008E90E0008D3
:10013000E90E0008E90E0008E90E0008E90E0008C3
:10014000E90E0008E90E0008E90E0008E90E0008B3
:10015000E90E0008E90E0008E90E0008E90E0008A3
:10016000E90E0008E90E0008E90E0008E90E000893
:10017000E90E0008E90E0008E90E00080000000082
:08018000E90E0008E90E000879
:100188007BB972B90029BEBF00204FF0004106E0DC
:1001980008BF00281CBF6FF000414FF0FF3000F08F
:1001A80057B8ADF1080C6DE904CE002909DB002B26
:1001B8001ADB66F053FCDDF804E0DDE9022304B045
:1001C8007047404261EB4101002B1BDB66F046FCA7
:1001D800DDF804E0DDE9022304B0404261EB4101AF
:1001E800524263EB43037047524263EB430366F0AA
:1001F80035FCDDF804E0DDE9022304B0404261EBA0
:1002080041017047524263EB430366F027FCDDF877
:1002180004E0DDE9022304B0524263EB4303704774
:1002280053B94AB9002908BF00281CBF4FF0FF3155
:100238004FF0FF3000F00CB8ADF1080C6DE904CEBA
:1002480066F00CFCDDF804E0DDE9022304B0704739
:10025800704700BF844641EA000313F003036DD1E1
:10026800403A41D351F8043B40F8043B51F8043B71
:1002780040F8043B51F8043B40F8043B51F8043B78
:1002880040F8043B51F8043B40F8043B51F8043B68
:1002980040F8043B51F8043B40F8043B51F8043B58
:1002A80040F8043B51F8043B40F8043B51F8043B48
:1002B80040F8043B51F8043B40F8043B51F8043B38
:1002C80040F8043B51F8043B40F8043B51F8043B28
:1002D80040F8043B51F8043B40F8043B51F8043B18
:1002E80040F8043B403ABDD2303211D351F8043BB8
:1002F80040F8043B51F8043B40F8043B51F8043BF8
:1003080040F8043B51F8043B40F8043B103AEDD266
:100318000C3205D351F8043B40F8043B043AF9D2B7
:10032800043208D0D2071CBF11F8013B00F8013B8A
:1003380001D30B8803806046704700BF082A13D397
:100348008B078DD010F003038AD0C3F10403D21AAF
:10035800DB071CBF11F8013B00F8013B80D331F8E3
:10036800023B20F8023B7BE7043AD9D3013A11F863
:10037800013B00F8013BF9D20B7803704B784370CE
:100388008B7883706046704710B5054C237833B975
:10039800044B13B10448AFF300800123237010BD50
:1003A8005C01002000000000186F060808B5034B28
:1003B8001BB103490348AFF3008008BD00000000EB
:1003C80060010020186F060880B483B000AF0346B0
:1003D800FB712B4B1B68002B07D0294B9B881946B8
:1003E800274B1B681A460B049361264B1B68002B8E
:1003F80007D0244B9B881946224B1B681A460B04CE
:100408009361214B1B68002B16D0FB791F4A127889
:10041800D2B293401C4A928813401946FB79DB43B9
:100428001A4A1278D2B29340174A928813401B0492
:10043800154A12680B439361154B1B68002B07D0B4
:10044800134B9B881946124B1B681A460B04936181
:100458000F4B1B68002B04D00D4B9A880C4B1B6864
:100468009A61074B1B68002B04D0054B9A88044BF4
:100478001B689A6100BF0C37BD465DF8047B704766
:1004880078010020880100209C010020BE01002086
:100498008001002080B483B000AF0346FB712A4B73
:1004A8001B68002B07D0284B9B881946264B1B68D6
:1004B8001A460B049361254B1B68002B04D0234B71
:1004C8009A88224B1B689A61214B1B68002B16D017
:1004D800FB79204A1278D2B293401D4A9288134081
:1004E8001946FB79DB431B4A1278D2B29340184A6B
:1004F800928813401B04164A12680B439361164BEB
:100508001B68002B07D0144B9B881946124B1B689D
:100518001A460B049361104B1B68002B04D00E4B3A
:100528009A880D4B1B689A61074B1B68002B04D0F7
:10053800054B9A88044B1B689A6100BF0C37BD466F
:100548005DF8047B704700BF780100208801002017
:100558009C010020BE0100208001002080B487B0EB
:1005680000AF0346FB80FB881B1203F0F8037B6196
:10057800FB88DB1003F0FC033B61FB88DB00DBB28C
:10058800FB60454B1B68002B19D07B69434A1278E6
:10059800D2B293409AB2404B9B8813409BB2194603
:1005A8007B693E4A1278D2B293409BB2DB433A4A07
:1005B800928813401B04384A12680B439361384BE6
:1005C8001B68002B07D0364B9B881946344B1B6899
:1005D8001A460B049361324B1B68002B04D0304B36
:1005E8009A882F4B1B689A612B4B1B68002B19D0DC
:1005F8003B692A4A1278D2B293409AB2264B9B881A
:1006080013409BB219463B69244A1278D2B29340F0
:100618009BB2DB43204A928813401B041E4A12688F
:100628000B4393611E4B1B68002B07D01C4B9B8808
:1006380019461B4B1B681A460B049361184B1B6821
:10064800002B04D0164B9A88154B1B689A61124BE5
:100658001B68002B19D0FB68104A1278D2B293405D
:100668009AB20D4B9B8813409BB21946FB680B4A04
:100678001278D2B293409BB2DB43074A9288134068
:100688001B04054A12680B43936100BF1C37BD4623
:100698005DF8047B704700BF9C010020BE0100206C
:1006A8008001002080B584B000AF78600B467B8065
:1006B8000023FB6083E0474B1B78DBB2002B16D08E
:1006C800454B1B68002B5FD07B681A88424B9B8880
:1006D80013409BB219467B681B88DB433E4A9288CD
:1006E80013401B043C4A12680B4393614CE03B4B9C
:1006F8001B78DBB2002B42D0374B1B68002B1AD07B
:100708007B681B88DBB2364A1278D2B29340324AF1
:100718009288134019467B681B88DBB2DB43304A5A
:100728001278D2B293402C4A928813401B042A4A6A
:1007380012680B4393612B4B1B68002B24D07B68FA
:100748001B881B0A9BB21A46274B1B78DBB202FA9E
:1007580003F3244A9288134019467B681B881B0AB6
:100768009BB2DB43204A1278D2B293401D4A92884A
:1007780013401B041B4A12680B43936104E07B6817
:100788001B881846FFF7EAFE184B1B68002B07D09A
:10079800164B9B881946154B1B681A460B04936128
:1007A800124B1B68002B04D0104B9A880F4B1B6808
:1007B8009A617B6802337B60FB680133FB607B884E
:1007C800FA689A42FFF477AF00BF00BF1037BD4602
:1007D80080BD00BFBC0100209C010020BD0100209D
:1007E800BE01002090010020BF01002080010020F0
:1007F80080B500AF134B00221A70134B00221A70F9
:10080800124B00221A70124B00221A705D211148F7
:1008180065F078FD5F21104865F074FD5B210F4895
:1008280065F070FD01234FF6FF7204210C4865F056
:1008380082FD044B01221A70FF210A4862F06AFC0B
:1008480000BF80BDBC010020BD010020BE0100200A
:10085800BF010020780100208801002080010020CD
:100868009C010020A801002080B584B000AFF8608A
:10087800B9607A603B602A20FFF7A6FD07F10C03F8
:1008880001331B781846FFF705FE07F10C031B78A8
:100898001846FFF7FFFD07F1080301331B781846D8
:1008A800FFF7F8FD07F108031B781846FFF7F2FD7C
:1008B8002B20FFF789FD3B1D01331B781846FFF7F6
:1008C800E9FD3B1D1B781846FFF7E4FD3B46013365
:1008D8001B781846FFF7DEFD3B461B781846FFF7E6
:1008E800D9FD2C20FFF770FD0C4B1B68002B07D09F
:1008F8000A4B9B881946094B1B681A460B049361DF
:10090800074B1B68002B04D0054B9A88044B1B68C7
:100918009A6100BF1037BD4680BD00BF7801002036
:100928008801002080B582B002AF00F023F84FF4B0
:1009380088714FF4F0700DF037FA03460A4A1360D5
:10094800094B1B68094918460DF00BFD064B186842
:10095800002300934FF46153002205490DF054FC25
:1009680000BFBD4680BD00BFC00100208909000846
:10097800C401002080B500AFFFF73AFF00BF80BD7B
:1009880080B58EB000AFF860B9607A60BB689B68CC
:10099800002B7CDBBB68DB68002B7ADBBB681B6841
:1009A800B3F5F07F77DABB685B68B3F5887F74DAF4
:1009B800BB681B6823EAE373FB62BB685B6823EAD6
:1009C800E373BB62BB689B6840F2DF129342A8BF27
:1009D80013467B62BB68DB6840F20F129342A8BFE4
:1009E80013463B62BB689B689AB2BB681B689BB2A4
:1009F800D31A9BB20133FB837B6A9AB2FB6A9BB220
:100A0800D31A9BB20133BB837B687B63FB6A9AB2C0
:100A1800BB8B13449BB2C3F5F0737B83FB6A9BB219
:100A2800C3F5EF7301333B833B6A9BB2C3F587730E
:100A38000133FB82BB6A9BB2C3F587730133BB8268
:100A4800788B398BFA8ABB8AFFF70EFFBB6A3B6348
:100A58000CE0BB8B1946786BFFF724FEFB8B5B0021
:100A68007A6B13447B633B6B01333B633A6B3B6AA2
:100A78009A42EEDD0B4B1B68002B04D0094B9A8879
:100A8800084B1B689A61F8680DF097FC06E000BFF8
:100A980004E000BF02E000BF00E000BF3837BD46F9
:100AA80080BD00BF7801002080B58AB000AF7860B3
:100AB800396007F108031946074862F0E1FF3B89EE
:100AC8001AB27B681A807B891AB23B681A8000BF09
:100AD8002837BD4680BD00BF143A002080B500AF5E
:100AE800024863F073FA00BF80BD00BF143A0020CB
:100AF80080B500AF00F018F815F062F80346084A10
:100B08001360074B1B680121184615F0C3F9044B05
:100B18001B680449184615F0D5F900BF80BD00BF11
:100B2800983A0020490B000880B500AF02490348F5
:100B380062F0B4FA00BF80BD043A0020143A0020E5
:100B480080B582B000AF7860396000F021F80346C4
:100B5800002B08D00C490D4800F02CF83B68012206
:100B680083F8202003E03B68002283F82020074B0D
:100B78001A683B685A62044B1A683B689A6200BF5D
:100B88000837BD4680BD00BFA03A00209C3A00202F
:100B980080B400AF064B93F83A30002B14BF012302
:100BA8000023DBB21846BD465DF8047B704700BFE2
:100BB800143A002080B582B000AF78603960396897
:100BC8007868FFF771FF00BF0837BD4680BD000099
:100BD80080B500AF024800F0DDF800BF80BD00BF5F
:100BE800A43A002080B500AF034B1B6818460DF0EF
:100BF80070FC00BF80BD00BFA43A002080B489B05B
:100C080000AF0346FB712C4BFB61FB69013BB3F161
:100C1800807F01D301230EE0284AFB69013B536022
:100C2800274BF02283F82320244B00229A60234B81
:100C380007221A600023002B37D1FB79FB760023AB
:100C4800BB761F4BDB681B0A03F007037B617B69DC
:100C580003F007033B613B69C3F10703042B28BF7B
:100C68000423FB603B690433062B02D93B69033B31
:100C780000E00023BB60FA7E4FF0FF31FB6801FA09
:100C880003F3DB431A40BB689A40B97E4FF0FF304C
:100C9800BB6800FA03F3DB430B401343DBB2084A9B
:100CA8001B01DBB282F8233000E0FEE72437BD46A3
:100CB8005DF8047B704700BF4090020010E000E040
:100CC80000ED00E080B500AF0F20FFF797FF00BFF1
:100CD80080BD80B500AF18F0B5FDFFF723FEFFF724
:100CE80007FFFFF7EFFF00BF80BD80B500AFFFF73C
:100CF800F0FF00F0C6F8FFF775FF00BF80BD80B5B4
:100D080000AF00F0FDF9FFF7F0FF1EF03BFE0520F5
:100D180000F0D8F9F9E70000684620F007018D4691
:100D280089B500AF0B4B1B6801330A4A1360094BA6
:100D38001B68052B07D1074B00221A60052025F0F8
:100D4800FDFBFFF7CBFE00BFBD46BDE889408546E9
:100D5800704700BFA83A002080B584B000AFF860A3
:100D6800B9607A607A68B968F8680AF092F97A68BE
:100D7800B968F8680AF09FF97A68B968F8680AF0FB
:100D880064F97A68B968F8680AF071F900BF103731
:100D9800BD4680BD90B587B000AF7860002000F0F8
:100DA80057FC02467B681A607B681B68002200219A
:100DB8001846FFF7D1FF7B681C68EE22EE21EE2073
:100DC8001BF075FA03461A463A72C3F307227A7281
:100DD800C3F30743BB720022B96820460AF07DF9C5
:100DE8007B681C68EE22EE21EE201BF060FA0346B9
:100DF8001A463A73C3F307227A73C3F30743BB73E4
:100E08000022F96820460AF084F97B681B680022F2
:100E1800002118460AF099F97B681C68EE22EE2139
:100E2800EE201BF044FA03461A463A74C3F307222D
:100E38007A74C3F30743BB740022396920460AF069
:100E48004CF97B681C68EE22EE21EE201BF02FFA8D
:100E580003461A463A75C3F307227A75C3F3074364
:100E6800BB750022796920460AF053F97B681B6834
:100E78000022002118460AF068F900BF1C37BD4659
:100E880090BD80B500AFFFF7A3FE00BF80BD000096
:100E9800DFF834D00D480E490E4A002302E0D4583A
:100EA800C4500433C4188C42F9D30B4A0B4C0023AA
:100EB80001E013600432A242FBD300F0ABF865F006
:100EC8009DFFFFF71CFF7047000002200000002074
:100ED8005C01002044BD06085C010020343F01206D
:100EE800FEE780B400AF4EF68850CEF200000168ED
:100EF80041F47001016000BF00BF00BF00BFF1EE08
:100F0800100A4FF00001C0F2C00140EA0100E1EE12
:100F1800100A00BFBD465DF8047B704780B485B0F9
:100F280000AF78600023FB600023BB607B68204A29
:100F38005A60204B9B6803F0F003FB60FB681B09B9
:100F4800FB601D4AFB6813441B78BB607B685A68CA
:100F5800BB689A407B681A60164B9B6803F4E053A1
:100F6800FB60FB689B0AFB60134AFB6813441B7811
:100F7800BB607B685A68BB68DA407B689A600D4B37
:100F88009B6803F46043FB60FB685B0BFB600A4AE9
:100F9800FB6813441B78BB607B685A68BB68DA40FF
:100FA8007B68DA6000BF1437BD465DF8047B704784
:100FB800007A030A003802400000002080B400AF25
:100FC800124B1B68114A43F0010313600F4B0022B8
:100FD8009A600E4B1B680D4A23F0847323F4803308
:100FE80013600A4B5A680949094B13404B60074B79
:100FF8001B68064A23F480231360044B0022DA603E
:1010080000BFBD465DF8047B704700BF0038024052
:101018001030002480B500AF1D4B1B681C4A43F0FC
:10102800050313601A4B1B68194A43F48073136055
:10103800174B1B68164A43F400731360FFF7BEFF93
:10104800144B154A5A60134B144A9A60114B81226B
:101058001A6000BF0F4B1B6803F00203002BF9D086
:101068000C4B1B680B4A43F08073136000BF094B9D
:101078001B6803F00073002BF9D000BF054B9B6879
:1010880003F00C03082BF9D1FFF72BFF00BF80BD3D
:10109800003C0240003802401054000902946000ED
:1010A80080B582B000AF78607A6813465B0013445D
:1010B800DA00D31A0A3B184665F036FF00BF083736
:1010C800BD4680BD80B582B000AF78607B6845F2D0
:1010D800082202FB03F3184665F026FF00BF083715
:1010E800BD4680BD80B500AF3220FFF7D9FF00BFF5
:1010F80080BD80B500AF6420FFF7E4FF00BF80BD6E
:1011080080B400AF074B1B7883F00103DBB2002BE0
:1011180002D0044B01221A7000BFBD465DF8047B63
:10112800704700BFAC3A002080B483B000AF78604D
:1011380039603B681A687B681A603B685A687B6844
:101148005A603B689A687B689A603B68DA687B6893
:10115800DA6000BF0C37BD465DF8047B704780B489
:1011680083B000AF78607B681B7AFF2B01D1012325
:1011780000E0002318460C37BD465DF8047B704735
:1011880080B58AB000AFF8600B467A60FB72F868E9
:10119800FFF7E5FF0346002B21D0FB681B687B6146
:1011A80000237B6213E07B6ADB007A6913441B78B7
:1011B800FA7A9A4208D17B6ADB007A691A447B681A
:1011C80052681A60012331E07B6A01337B627B6AD3
:1011D800DB007A6913441B78002BE4D125E0FB6817
:1011E8001A68FB681B7A9B001344FB6100233B626F
:1011F80015E0FA693B6A13441B78FA7A9A420BD1D4
:10120800FB681B68BB613B6A9B00BA691A447B6830
:1012180012681A60012309E03B6A01333B62FB68EC
:101228001B7A1A463B6A9342E3D3002318462837B1
:10123800BD4680BD80B483B000AF78607B689BB248
:1012480018460C37BD465DF8047B704780B483B000
:1012580000AF78607B6803F47F0318460C37BD46FF
:101268005DF8047B704780B584B000AF7860396062
:1012780001223968786808F027FA0346FB60FB68A2
:1012880018461037BD4680BD80B584B000AF786081
:10129800396002223968786808F016FA0346FB605C
:1012A800FB6818461037BD4680BD80B584B000AFD6
:1012B800786039600A223968786808F005FA0346C8
:1012C800FB60FB68DBB218461037BD4680BD80B5B1
:1012D80084B000AF786039606A223968786808F0AD
:1012E800F3F90346FB60FB6818461037BD4680BD1E
:1012F80080B584B000AF786039606B22396878684F
:1013080008F0E2F90346FB60FB6818461037BD4653
:1013180080BD80B584B000AF78603960102239682C
:10132800786808F0D1F90346FB60FB681846103767
:10133800BD4680BD80B584B000AF786039601222A8
:101348003968786808F0C0F90346FB60FB681846FE
:101358001037BD4680BD80B584B000AF7860396075
:101368001C223968786808F0AFF90346BB6007F1BA
:101378000C0307F108021268114619800233120C97
:101388001A7000233A7B62F307037A7B62F30F2318
:10139800BA7B62F3174318461037BD4680BD80B547
:1013A80084B000AF786039601D223968786808F029
:1013B8008BF90346FB60FB68DBB218461037BD4665
:1013C80080BD80B584B000AF78603960202239686C
:1013D800786808F079F90346FB60FB68DBB21846C9
:1013E8001037BD4680BD80B584B000AF78603960E5
:1013F80024223968786808F067F90346FB60FB68BF
:10140800DBB218461037BD4680BD80B584B000AF4A
:101418007860396025223968786808F055F90346FC
:10142800FB60FB68DBB218461037BD4680BD80B54F
:1014380084B000AF7860396026223968786808F08F
:1014480043F90346FB60FB6818461037BD4680BD6C
:1014580080B584B000AF7860396031223968786827
:1014680008F032F90346BB6007F10C0307F10802E4
:101478001268114619800233120C1A7000233A7B45
:1014880062F307037A7B62F30F23BA7B62F3174395
:1014980018461037BD4680BD80B584B000AF78606F
:1014A800396032223968786808F00EF90346FB6023
:1014B800FB68DBB218461037BD4680BD80B584B0E6
:1014C80000AF7860396030223968786808F0FCF835
:1014D8000346FB60FB6818461037BD4680BD80B5E3
:1014E80084B000AF7860396035223968786808F0D0
:1014F800EBF80346FB60FB68002B14BF01230023B5
:10150800DBB218461037BD4680BD80B584B000AF49
:10151800786039603C223968786808F0D5F8034665
:10152800FB60FB6818461037BD4680BD80B584B0A7
:1015380000AF7860396042223968786808F0C4F8EA
:101548000346FB60FB6818461037BD4680BD80B572
:1015580084B000AF786039603D223968786808F057
:10156800B3F80346BB6007F10C0307F108021268E1
:10157800114619800233120C1A7000233A7B62F369
:1015880007037A7B62F30F23BA7B62F3174318468B
:101598001037BD4680BD80B584B000AF7860396033
:1015A8003E223968786808F08FF80346FB60FB68CC
:1015B800DBB218461037BD4680BD80B584B000AF99
:1015C800786039600C223968786808F07DF803463D
:1015D800FB60FB6818461037BD4680BD80B584B0F7
:1015E80000AF786039602D223968786808F06CF8A7
:1015F8000346FB60FB68002B14BF01230023DBB20A
:1016080018461037BD4680BD80B584B000AF7860FD
:10161800396062223968786808F056F80346FB603A
:10162800FB68DBB218461037BD4680BD80B584B074
:1016380000AF7860396016223968786808F044F895
:101648000346FB60FB689BB218461037BD4680BD59
:1016580080B584B000AF786079680A4801F01AFA5A
:10166800F860FB68002B00D1FEE7FB68002B01D176
:10167800002303E0F86801F0B3FAFB681846103756
:10168800BD4680BDEC77060880B58EB000AF7860A7
:1016980039607B68002B00D1FEE73968786800F074
:1016A80045F90346002B65D1786803F089FF0346A6
:1016B80087F837303B6803F00103002B02D07868C5
:1016C80005F01DF87B685A6A3B681A437B685A62C2
:1016D8003B6803F00103002B1AD00221786800F060
:1016E80066F90346002B13D0786800F07AF938635E
:1016F8003B6B002B0CD0386B3CF034FA386B3CF069
:10170800E3FAF862FB6A002B02D0F86A04F0F7FFEC
:10171800786803F055FF03461A4697F83730934226
:1017280004D13B6803F0C073002B09D0786809F036
:10173800BBFF0346184603F06BFF786803F068FFA9
:101748003B6803F01003002B15D007F10C0207F1DA
:101758001C031946786806F05BFB07F11C03194661
:10176800786804F07FFF07F10C031946786804F0E5
:1017780079FF00E000BF3837BD4680BD80B58CB02A
:1017880000AF786039607B68002B00D1FEE73968CC
:10179800786800F0E4F8034683F00103DBB2002B1D
:1017A8004DD1786803F00CFF034687F82F303B686B
:1017B80003F01003002B13D007F10C0207F11C03F0
:1017C8001946786806F024FB07F11C031946786867
:1017D80004F048FF07F10C031946786804F042FF4B
:1017E8007B685A6A3B68DB431A407B685A623B68ED
:1017F80003F00103002B0CD0786804F080FF7868B0
:1018080009F052FF0346184603F002FF786803F018
:10181800FFFE786803F0D4FE03461A4697F82F3087
:10182800934204D13B6803F0C073002B08D078685A
:1018380009F03AFF0346184603F0EAFE00E000BF4D
:101848003037BD4680BD80B584B000AF78600B46A8
:101858007B807B68002B00D1FEE77B681A8D7B8834
:101868001343FB817B681B8DFA899A4211D0FB894F
:101878001946786800F04FFF4FF48001786800F04F
:1018880055F80346002B04D07B881946786801F088
:10189800B3F800BF1037BD4680BD80B584B000AF37
:1018A80078600B467B807B68002B00D1FEE77B6865
:1018B8001B8D1AB2B7F90230DB431BB213401BB2BF
:1018C800FB817B681B8DFA899A4211D0FB891946E6
:1018D800786800F020FF4FF48001786800F026F85F
:1018E8000346002B04D07B881946786801F0ABF8D2
:1018F80000BF1037BD4680BD80B582B000AF7860AC
:101908000B467B8013467B707B78002B05D07B8849
:1019180019467868FFF797FF04E07B8819467868CE
:10192800FFF7BBFF00BF0837BD4680BD80B483B05A
:1019380000AF786039607B68002B00D1FEE77B68D8
:101948005A6A3B6813403A689A420CBF0123002345
:10195800DBB218460C37BD465DF8047B704780B48F
:1019680083B000AF786039607B68002B00D1FEE758
:101978007B685A6A3B681340002B14BF012300237D
:10198800DBB218460C37BD465DF8047B704780B45F
:1019980083B000AF78607B68002B00D1FEE77B68DE
:1019A8001B8D18460C37BD465DF8047B704780B424
:1019B80083B000AF78600B467B807B68002B00D13A
:1019C800FEE77B681A8D7B8813409BB2002B14BFFF
:1019D80001230023DBB218460C37BD465DF8047BB3
:1019E800704780B483B000AF78607B68002B00D16B
:1019F800FEE77B689B68002B03D07B689B685B686D
:101A080000E0002318460C37BD465DF8047B70479C
:101A180080B582B000AF78607B68002B00D1FEE70C
:101A28007B689B68002B1ED1342020F081FB024686
:101A38007B689A607B689B68002B00D1FEE77B6817
:101A48009B68002B0ED07B689A68538E43F47073A2
:101A580053867B689A6892F8323043F0030382F821
:101A6800323000E000BF0837BD4680BD80B483B087
:101A780000AF786039607B68002B01D1002307E054
:101A88007B681B683A689A420CBF01230023DBB2CB
:101A980018460C37BD465DF8047B704790B587B093
:101AA80000AF786039603B685B687B617B69002BBD
:101AB80029D0786905F004FE3861786905F07CFD65
:101AC800F8607B699C6900217869FFF722FC03466E
:101AD800E218FB68D21A3B689A613B689B695A1EF8
:101AE8003B681A627B695C6900217869FFF722FC10
:101AF8000346E2183B69D21A3B685A613B685B6946
:101B08005A1E3B68DA613B6802225A623B685B6A8C
:101B180043F480523B685A627B69002B05D03B68CE
:101B28005B6A43F400523B685A627B69002B05D01C
:101B38003B685B6A43F440723B685A623B685B6A85
:101B480043F004023B685A623B685B6A43F0100248
:101B58003B685A623B685B6A43F020023B685A6202
:101B68003B685B6A43F040023B685A623B685B6AC9
:101B780043F400623B685A627B69002B05D03B68DE
:101B88005B6A43F400423B685A6200BF1C37BD469B
:101B980090BD80B584B000AF7860396038681BF0BC
:101BA8003DF9002007F07EFD386807F093FC01201E
:101BB80007F078FD0021386818F058FB3868FFF7FF
:101BC80010FFF860FB68002B02D038683BF0C9FEB4
:101BD8003B689B68002B1CD03B689B681B68002BEC
:101BE80009D03B689B681B68184620F0BFFA3B6821
:101BF8009B6800221A603B689B68083318461BF0F4
:101C080098F83B689B68184620F0B0FA3B680022B9
:101C18009A6000BF1037BD4680BD80B5C2B000AF26
:101C280007F58473A3F58273186007F58473A3F529
:101C3800827318681BF0BCF8C7F8000107F58473B5
:101C4800A3F5827318681BF09BF8C7F8FC00D7F857
:101C580000311A2B40F0C28007F58473A3F5827314
:101C680018681BF0B3F8C7F8E000D7F8E0301B7825
:101C7800022B00F073810021D7F8FC00FFF7AEFCBF
:101C88000346002B04D0D7F8E03002221A7066E130
:101C98000021D7F8FC00FFF790FCC7F8DC00002112
:101CA800D7F8FC00FFF713FBC7F8D8000021D7F8D6
:101CB800FC00FFF71DFBC7F8D400D7F8FC3003F190
:101CC800140207F1C00311461846FFF72DFA07F171
:101CD800C003D7F8D420D7F8D810184619F0A4F8BC
:101CE800D7F8E0305B6807F1C001D7F8DC20184668
:101CF80019F056FB034683F00103DBB2002B04D036
:101D0800D7F8E03001221A7029E10021D7F8FC0049
:101D1800FFF745FB0346FC2B04D8D7F8E030012237
:101D28001A701CE10021D7F8FC00FFF76DFC034690
:101D3800FC2B04D8D7F8E03001221A700FE10021FB
:101D4800D7F8FC00FFF73DFB0346002B14D0002119
:101D5800D7F8FC00FFF759FB0346FC2B07D90021F5
:101D6800D7F8FC00FFF73FFB0346FC2B04D8D7F855
:101D7800E03001221A70F2E00021D7F8FC00FFF7EA
:101D880056FBC7F8D000D7F8D030002B21D000235D
:101D9800C7F8043115E0D7F8D010D7F80421134656
:101DA8009B0013440B4403331B78FC2B04D8D7F84F
:101DB800E03001221A70D2E0D7F804310133C7F8B5
:101DC8000431D7F8D0309B7A1A46D7F804319342B9
:101DD800E1D3D7F8E03000221A70C0E0D7F800311C
:101DE8001D2B51D107F58473A3F58273186802F08F
:101DF80083FCC7F8EC0007F10C03184610F0ECFB65
:101E0800D7F8EC30FB6107F10C031A460021D7F82C
:101E1800FC0001F0C6FC0021D7F8FC00FFF75FFBCF
:101E28000346002B05D097F8803043F0200387F84D
:101E380080300021D7F8FC00FFF749FAC7F8E8001E
:101E48000021D7F8FC00FFF753FAC7F8E400D7F8E9
:101E5800FC3003F1140207F1B00311461846FFF7EE
:101E680063F907F1B003D7F8E420D7F8E81018466B
:101E780018F0DAFF07F1B00207F10C031946D7F89A
:101E8800EC0010F07BFC6AE0D7F80031202B66D11B
:101E980007F58473A3F58273186802F02DFCC7F860
:101EA800F800D7F8F810D7F8FC0000F05CF800212B
:101EB800D7F8FC00FFF702FB0346002B4FD00021A8
:101EC800D7F8FC00FFF70BFB0346002B47D007F1C0
:101ED8000C03184610F080FB002387F83A300023E3
:101EE80087F83730002387F83C30002387F83D30E7
:101EF800D7F8F830FB6107F10C031A460021D7F830
:101F0800FC0001F04EFC0021D7F8FC00FFF7DFF9D8
:101F1800C7F8F4000021D7F8FC00FFF7E9F9C7F883
:101F2800F000D7F8FC3003F1140207F1A0031146C2
:101F38001846FFF7F9F807F1A003D7F8F020D7F80B
:101F4800F410184618F070FF07F1A00207F10C030F
:101F58001946D7F8F80010F011FC00E000BF07F5AB
:101F68008477BD4680BD80B5B0B000AF7860396079
:101F780007F19C0207F1AC031946786805F048FFA1
:101F880007F1AC03184618F034FF0346002B07D1BD
:101F980007F19C03184618F02CFF0346002B31D09C
:101FA80007F108031946786800F032F8034687F805
:101FB800BF3097F8BF30012B26D107F1AC03184684
:101FC80018F017FF0346002B09D000233B6107F1E7
:101FD800AC0207F108031946386810F0CFFB07F187
:101FE8009C03184618F005FF0346002B0DD001236B
:101FF8003B6107F19C0207F108031946386810F0A5
:10200800BDFB02E000BF00E000BFC037BD4680BD99
:1020180090B585B000AF78603960386810F0DCFAA8
:102028004FF480317868FFF7BAF903461A463B68DF
:1020380083F82E203B6893F82E30022B11D93C6888
:102048004FF480317868FFF786F903461A4684F81A
:102058003220C3F3072284F83320C3F3074384F8FC
:1020680034304FF480317868FFF716FA03461A4681
:102078003B6883F82F203B6893F82F30022B22D936
:102088004FF480317868FFF719FA02463B681A67FF
:102098003B681B6F002B12DD3C684FF48031786879
:1020A800FFF7D6F903461A4684F86C20C3F30722D3
:1020B80084F86D20C3F3074384F86E3003E03B686F
:1020C800002283F82F204FF480317868FFF763FAF5
:1020D80003461A463B6883F831203B6893F8313051
:1020E800022B2DD94FF480317868FFF70EFA02469B
:1020F8003B68C3F884203B68D3F88430002B1BDD91
:102108004FF480317868FFF711FA02463B68C3F84C
:1021180090203C684FF480317868FFF718FA03463E
:102128001A4684F88020C3F3072284F88120C3F379
:10213800074384F8823003E03B68002283F83120AB
:102148004FF48031786807F00EFF0346FB73FB7B82
:10215800FC2B14D83B6893F82E301A46FB7B02FB05
:1021680003F31B12BB733B68BA7B83F82E203B68D2
:10217800BA7B83F82F203B68BA7B83F831203B6811
:1021880093F82E30002B09D13B6893F82F30002BA1
:1021980004D13B6893F83130002B09D04FF48031DB
:1021A8007868FFF70AFA02463B68DA61012300E023
:1021B800002318461437BD4690BD90B5A5B000AFB2
:1021C8007860396038681AF0F3FDF86738681AF0F3
:1021D800D7FDB867FB6F012B04D12021B86FFFF73B
:1021E80032FB95E2FB6F0B2B33D12021B86FFFF741
:1021F80054FB38681AF0EAFD3863386B13F01BFF9C
:102208000346002B40F084820821B86FFFF78EFB4D
:102218000346002B00F07C82B86FFFF7B8FB03463B
:1022280003F00103002B04D10121B86FFFF70BFB6A
:1022380003E00121B86FFFF730FB00222321B86FBC
:1022480002F061F9034687F82F3097F82F30012BF9
:102258005EE2FB6F032B04D12021B86FFFF71DFB53
:1022680056E2FB6F322B1ED1B86F09F0D3FAB86370
:102278000023C7F88C3010E0BB6F9B681A68D7F84A
:102288008C309B0013441B687B63786B03F0C0F9A8
:10229800D7F88C300133C7F88C30D7F88C20BB6B5B
:1022A8009A42E9D334E2FB6F112B40F0F680082103
:1022B800B86FFFF73BFB0346002B28D0386802F0C5
:1022C80041FA38643B6C132B02D03B6C112B04D1C0
:1022D8000121B86FFFF7B7FA09E03B6C142B02D065
:1022E8003B6C122B03D10121B86FFFF7D6FA3B6C78
:1022F8000A2B00F00D8200222321B86F02F003F9A7
:10230800034687F83F3097F83F30012B00E24FF43F
:102318000161B86FFFF70AFB0346002B00F0F88154
:10232800B86F00F0CAFC034683F00103DBB2002B50
:1023380000F0EE81002387F85130B86F05F0C0F93E
:10234800F864B86F05F048FAB864386802F0FAF92A
:1023580078647B6C122B13D1B86F05F019F9044619
:10236800B86F03F012FD0346002B00DA03339B100D
:10237800234497F851201946B86F05F0AFFCC7E120
:102388007B6C112B14D1B86F05F002F90446B86FB5
:1023980003F0FBFC0346002B00DA03339B105B427F
:1023A800234497F851201946B86F05F097FCAFE120
:1023B8007B6C132B35D1B86F05F092F8034603F008
:1023C8000303002B05D0FB6C002B16DCBB6C002B29
:1023D80013DCB86F05F0DCF80446B86F03F0D5FCE1
:1023E8000346002B00DA03339B10234497F851204F
:1023F8001946B86F05F072FC8AE1B86F05F0B4F8B9
:102408000446B86F03F0AFFC0346002B00DA033331
:102418009B10234497F851201946B86F05F03EFCED
:1024280076E17B6C142B40F07381B86F05F058F897
:10243800034603F00303002B05D0FB6C002B17DCCD
:10244800BB6C002B14DCB86F05F0A2F80446B86F1B
:1024580003F09BFC0346002B00DA03339B105B421E
:10246800234497F851201946B86F05F037FC4FE11F
:10247800B86F05F079F80446B86F03F074FC0346AA
:10248800002B00DA03339B105B42234497F851205A
:102498001946B86F05F002FC3AE1FB6F132B59D1CE
:1024A8004FF48061B86FFFF741FA0346002B03D061
:1024B8000121B86F05F032FC002387F85330B86F5C
:1024C800FFF78FFA034618463BF016FC034687F8D9
:1024D80053300223A7F88A3013F0D0FCC7F88400E1
:1024E800D7F88430002B04D1386802F0AFF8C7F869
:1024F8008400D7F8840013F0F7FC034687F85230BD
:1025080097F85230022B03D097F85230042B05D19C
:10251800B7F88A3043F00403A7F88A3097F85330A5
:10252800002B0CD0B7F88A3043F00803A7F88A309C
:10253800B7F88A301946B86FFFF785F9E8E0B7F8B9
:102548008A301946B86FFFF77EF90821B86FFFF790
:10255800A4F9DDE0FB6F0C2B04D14021B86FFFF725
:1025680072F9D5E0FB6F0E2B1FD14021B86FFFF732
:1025780094F9B86F04F09DFF0346022B40F0C88021
:1025880007F10C0207F11C031946B86F05F040FC6F
:1025980007F11C031946B86F04F064F807F10C033F
:1025A8001946B86F04F05EF8B2E0FB6F142B04D143
:1025B8000E21B86FFFF771F9AAE0FB6F312B35D107
:1025C8000021B86FFEF771FE03463B660021B86F25
:1025D800FFF72CF80346A7F85E30B7F85E30002BFB
:1025E80002D13B6E002B02D0B86F03F011F8B86F20
:1025F80009F010F9B8650023C7F8803010E0BB6F08
:102608009B681A68D7F880309B0013441B687B6569
:10261800786D02F0FDFFD7F880300133C7F88030BD
:10262800D7F88020BB6D9A42E9D371E0FB6F2A2B63
:102638002BD10021B86FFEF716FE38670021B86F5E
:10264800FEF722FEF8660021B86FFEF72EFE03465D
:10265800BB660021B86FFEF7E9FF0346A7F86630AE
:10266800B7F86630002B0CD1BB6E002B09D13B6F3D
:102678006FF04042934204D0FB6E6FF040429342A9
:1026880046D1B86F02F0C4FF42E0FB6F2C2B0AD191
:10269800BA6F92F82A3043F0020382F82A30B86FF2
:1026A80002F0B6FF34E0FB6F1B2B09D10021B86F95
:1026B80001F080FD7867796F386802F075F827E0D7
:1026C800FB6F1D2B05D0FB6F202B02D0FB6F1A2B45
:1026D80003D13868FFF7A1FA1AE0FB6F172B08D16E
:1026E8002021B86FFFF7D9F84021B86FFFF7D5F868
:1026F8000EE0FB6F182B04D11021B86FFFF7A3F879
:1027080006E0FB6F192B03D11021B86FFFF7C5F84E
:102718009437BD4690BD80B594B002AF78600B4643
:102728007B807B681B8D7A889A4200F061817B6888
:10273800002B00D1FEE77B681B8DFB867A88FB8E19
:102748001946786807F007FA034687F8353097F88E
:102758003530002B03D17B687A881A8549E178687F
:1027680003F0CDFF7B687A881A85786807F04BFC00
:102778004FF420701FF0DCFC386300237B640023D7
:102788003B64DDE07B68DA683B6CDB001344FB628A
:102798007B68DA683B6CDB0013445B68C3F31703A0
:1027A8001846FEF747FD03467B857B68DA683B6C75
:1027B800DB0013445B68C3F317031846FEF746FDB6
:1027C80078627A8D7B88DB431340002B40F0B08021
:1027D800FB6ADB7903F00203DBB2002B40F0AA802E
:1027E800FB6A1B6807F10C0268211846FEF7C8FC53
:1027F8000346012B40F0A080FB683B620023FB638B
:102808008AE00023BB632DE0BA6B13469B00134498
:102818009B001A463B6B13445B68FB61F869FEF743
:1028280009FD03467B83F869FEF710FD7861BA6BF2
:1028380013469B0013449B001A463B6B13441A7AB9
:102848003B6A1968FB6B0B441B789A4207D17A697B
:102858007B6A9A4203D17A8B7B8D9A4207D2BB6BF3
:102868000133BB63BA6B7B6C9A42CDD300E000BFE7
:10287800BA6B7B6C9A424CD13B6AD9687A6C134626
:102888009B0013449B001A463B6B13448AB21A8080
:102898003B6A19697A6C13469B0013449B001A46DD
:1028A8003B6B13448AB25A807A6C13469B001344DC
:1028B8009B001A463B6B13443A6A9268DA603B6A9B
:1028C8001A68FB6BD1187A6C13469B0013449B0063
:1028D8001A463B6B13440A781A727A6C13469B00AB
:1028E80013449B001A463B6B13443A6A52681A61B8
:1028F800FB6A5B68C3F317017A6C13469B001344A9
:102908009B001A463B6B13440A465A607B6C0133A2
:102918007B64FB6B0133FB633B6A1A68FB6B1344F4
:102928001B78002B09D07B6C1F2B7FF66AAF04E065
:1029380000BF02E000BF00E000BF3B6C01333B6416
:102948007B685B8DC3F30513DBB21A463B6C93427D
:1029580003D27B6C1F2B7FF615AF00233B641FE06F
:102968003A6C13469B0013449B001A463B6B134476
:102978005B681846FEF76AFC38613A6C13469B00A0
:1029880013449B001A463B6B13447988FA8E0093D4
:102998000B463969786806F09FFF3B6C01333B644E
:1029A8003A6C7B6C9A42DBD3386B1FF0DFFB97F8ED
:1029B8003530012B06D1FF224FF47021786806F0DC
:1029C800CFFD16E097F83530032B06D1FF224FF4E0
:1029D8007021786806F0C4FD0BE097F83530022BBB
:1029E80007D1786803F08BFE786801F064FC00E09A
:1029F80000BF4837BD4680BD80B586B000AF78605F
:102A08000B467B80786808F005FF386100237B61FE
:102A180010E07B691946786808F05BFEF860FB688F
:102A2800002B04D07B881946F868FEF70CFF7B69F9
:102A380001337B617A693B699A42EAD300BF00BFE0
:102A48001837BD4680BD80B586B000AF78600B46AC
:102A58007B80786808F0DEFE386100237B6110E037
:102A68007B691946786808F034FEF860FB68002B2B
:102A780004D07B881946F868FEF70FFF7B6901339D
:102A88007B617A693B699A42EAD300BF00BF183775
:102A9800BD4680BD90B587B000AF78603960786872
:102AA80000F08CF9786178691FF042FB38613B6966
:102AB800002B01D100238FE03B697A681A603B69DB
:102AC8003A685A603B68002B59D10BF0D1FAF8608C
:102AD800FB68002B04D138691FF048FB00237BE01A
:102AE800FB68D3F8BC32002B03D1FB680022C3F883
:102AF800D822FB68D3F8BC22FB68D3F8D83201335C
:102B08009B00194610461FF049FBB860BB68002BB4
:102B180000D1FEE7BB68002B04D138691FF026FB03
:102B2800002359E0FB68D3F8D8325A1CFB68C3F875
:102B3800D822FB68BA68C3F8BC22FB68D3F8BC2269
:102B4800FB68D3F8D83203F18043013B9B00134460
:102B58003A691A603B6900225A613B6900229A610E
:102B680000200BF0A9FA03465A1E3B69DA610020DF
:102B78000BF0C4FA03465A1E3B691A622BE03B6805
:102B8800002B00D1FEE73B689B68002B02D1386818
:102B9800FEF73EFF3B689B681A8E013292B21A8696
:102BA8003B689B681A683B689B681B8E99003B686A
:102BB8009C6810461FF0F2FA034623603B689B6846
:102BC8001A683B689B681B8E03F18043013B9B009E
:102BD80013443A691A603B6918461C37BD4690BDD4
:102BE80080B584B000AF78607B68002B3FD07868F0
:102BF80002F00EFD002006F055FD786823F011FC68
:102C08007B681B687968184600F0AFF8012006F069
:102C180049FDFF224FF47021786806F0A1FC78681E
:102C280003F066F93AF05AFEF860FB68002B09D009
:102C3800786800F06EF80346002B03D07968F868CE
:102C48003AF058FE786808F02FFDB860BB68002B92
:102C58000ED07A682A21B86801F055FC7A682B21D1
:102C6800B86801F050FC786803F049FD00E000BF47
:102C78001037BD4680BD80B582B000AF78607B68F4
:102C88001B689B68002B07D07B681B689B687A6869
:102C980012687968104698477B681B681B68002B88
:102CA80007D07B681B681A687B681A607868FFF72A
:102CB800E2FF00BF0837BD4680BD80B485B000AFD5
:102CC80078607B681B68FB6002E0FB681B68FB6040
:102CD800FB68002B07D0FB6893F8203003F0030350
:102CE800DBB2002BF1D0FB68002B01D100230AE0F6
:102CF800FB6893F8203003F00303DBB2012B0CBF11
:102D080001230023DBB218461437BD465DF8047B67
:102D1800704780B485B000AF78607B681B68FB6043
:102D280002E0FB681B68FB60FB68002B07D0FB68B0
:102D380093F8203003F00C03DBB2002BF1D0FB68D2
:102D4800002B01D100230AE0FB6893F8203003F040
:102D58000C03DBB2042B0CBF01230023DBB21846A3
:102D68001437BD465DF8047B704780B584B000AF6A
:102D7800786039603B681B681B68002B0ED03B6885
:102D88001B68FB603B681B681A683B681A603968F7
:102D98007868FFF7EAFF3B68FA681A603B681B68C7
:102DA8005B68002B05D03B681B685B6839687868EE
:102DB800984700BF1037BD4680BD000080B485B07D
:102DC80000AF78607B68FB6002E0FB681B68FB6013
:102DD800FB68002B05D0FB681A6A0A4B1340002BCE
:102DE800F3D0FB68002B01D1002304E0FB681B6AC9
:102DF800C3F30F139BB218461437BD465DF8047B26
:102E0800704700BFF0FF0F0080B584B000AF786056
:102E180039606A223968786806F056FC0346FB6018
:102E2800FB6818461037BD4680BD80B584B000AF3A
:102E3800786039606B223968786806F045FC03468B
:102E4800FB60FB6818461037BD4680BD80B586B06C
:102E580000AF786039601C223968786806F034FC65
:102E680003463B613A693968786806F065FE0346AF
:102E7800FB6007F1140307F10C0212681146198070
:102E88000233120C1A7000233A7D62F307037A7D2D
:102E980062F30F23BA7D62F3174318461837BD460D
:102EA80080BD80B584B000AF786039601D22396874
:102EB800786806F009FC0346FB60FB68DBB218463D
:102EC8001037BD4680BD80B586B000AF78603960E8
:102ED80023223968786806F0F7FB03463B613A69B4
:102EE8003968786806F028FE0346FB6007F114038A
:102EF80007F10C021268114619800233120C1A707D
:102F080000233A7D62F307037A7D62F30F23BA7DCB
:102F180062F3174318461837BD4680BD80B584B0A4
:102F280000AF7860396020223968786806F0CCFBF9
:102F38000346FB60FB68DBB218461037BD4680BD10
:102F480080B584B000AF786039602122396878682C
:102F580006F0BAFB0346FB60FB6818461037BD460F
:102F680080BD80B584B000AF7860396022223968AE
:102F7800786806F0A9FB0346FB60FB681846103723
:102F8800BD4680BD80B584B000AF7860396024222A
:102F98003968786806F098FB0346FB60FB68DBB28B
:102FA80018461037BD4680BD80B584B000AF786044
:102FB800396025223968786806F086FB0346FB608D
:102FC800FB68DBB218461037BD4680BD80B584B0BB
:102FD80000AF7860396026223968786806F074FB9B
:102FE8000346FB60FB6818461037BD4680BD80B5B8
:102FF80084B000AF7860396028223968786806F0B4
:1030080063FB0346FB60FB6818461037BD4680BD6E
:1030180080B584B000AF7860396029223968786853
:1030280006F052FB0346FB60FB68DBB2184610371C
:10303800BD4680BD80B586B000AF786039602A2271
:103048003968786806F040FB03463B613A6939689D
:10305800786806F071FD0346FB6007F1140307F179
:103068000C021268114619800233120C1A700023E0
:103078003A7D62F307037A7D62F30F23BA7D62F328
:10308800174318461837BD4680BD80B584B000AFD9
:10309800786039602B223968786806F015FB03469A
:1030A800FB60FB68DBB218461037BD4680BD80B5B3
:1030B80084B000AF786039602C223968786806F0EF
:1030C80003FB0346FB60FB68002B14BF01230023AE
:1030D800DBB218461037BD4680BD80B586B000AF5C
:1030E8007860396031223968786806F0EDFA03466D
:1030F8003B613A693968786806F01EFD0346FB6053
:1031080007F1140307F10C02126811461980023303
:10311800120C1A7000233A7D62F307037A7D62F37A
:103128000F23BA7D62F3174318461837BD4680BD92
:1031380080B584B000AF7860396032223968786829
:1031480006F0C2FA0346FB60FB68DBB2184610378C
:10315800BD4680BD80B584B000AF7860396030224C
:103168003968786806F0B0FA0346FB60FB681846D1
:103178001037BD4680BD80B584B000AF7860396037
:1031880034223968786806F09FFA0346FB60FB68CA
:10319800DBB218461037BD4680BD80B584B000AF9D
:1031A8007860396038223968786806F08DFA034605
:1031B800FB60FB6818461037BD4680BD80B586B0F9
:1031C80000AF7860396039223968786806F07CFA8F
:1031D80003463B613A693968786806F0ADFC0346F6
:1031E800FB6007F1140307F10C02126811461980FD
:1031F8000233120C1A7000233A7D62F307037A7DBA
:1032080062F30F23BA7D62F3174318461837BD4699
:1032180080BD80B584B000AF786039603A223968E3
:10322800786806F051FA0346FB60FB68DBB2184683
:103238001037BD4680BD80B584B000AF7860396076
:103248003B223968786806F03FFA0346FB60FB6862
:1032580018461037BD4680BD80B584B000AF786091
:1032680039603C223968786806F02EFA0346FB601C
:10327800FB6818461037BD4680BD80B584B000AFE6
:103288007860396040223968786806F01DFA03468C
:10329800FB60FB6818461037BD4680BD80B584B01A
:1032A80000AF7860396041223968786806F00CFA16
:1032B8000346FB60FB6818461037BD4680BD80B5E5
:1032C80084B000AF7860396042223968786806F0C7
:1032D800FBF90346FB60FB6818461037BD4680BD06
:1032E80080B586B000AF786039603D22396878686B
:1032F80006F0EAF903463B613A693968786806F0EE
:103308001BFC0346FB6007F1140307F10C0212686B
:10331800114619800233120C1A7000233A7D62F3A9
:1033280007037A7D62F30F23BA7D62F317431846C9
:103338001837BD4680BD80B584B000AF786039606D
:103348003E223968786806F0BFF90346FB60FB68DF
:10335800DBB218461037BD4680BD80B584B000AFDB
:103368007860396044223968786806F0ADF9034618
:10337800FB60FB68DBB218461037BD4680BD80B5E0
:1033880086B000AF7860396045223968786806F001
:103398009BF903463B613A693968786806F0CCFBCB
:1033A8000346FB6007F1140307F10C02126811468B
:1033B80019800233120C1A7000233A7D62F3070356
:1033C8007A7D62F30F23BA7D62F3174318461837E4
:1033D800BD4680BD80B584B000AF786039604622B4
:1033E8003968786806F070F90346FB60FB68DBB261
:1033F80018461037BD4680BD80B584B000AF7860F0
:10340800396089223968786806F05EF90346FB60FE
:10341800FB6818461037BD4680BD80B584B000AF44
:103428007860396048223968786806F04DF90346B3
:10343800FB60FB6818461037BD4680BD80B584B078
:1034480000AF7860396049223968786806F03CF93D
:103458000346FB60FB6818461037BD4680BD80B543
:1034680084B000AF786039604A223968786806F01D
:103478002BF90346FB60FB6818461037BD4680BD34
:1034880080B584B000AF786039604B2239687868BD
:1034980006F01AF90346FB60FB68002B14BF0123F2
:1034A8000023DBB218461037BD4680BD80B586B014
:1034B80000AF786039604C223968786806F004F902
:1034C80003463B613A693968786806F035FB03467C
:1034D800FB6007F1140307F10C021268114619800A
:1034E8000233120C1A7000233A7D62F307037A7DC7
:1034F80062F30F23BA7D62F3174318461837BD46A7
:1035080080BD80B584B000AF786039604D223968DD
:10351800786806F0D9F80346FB60FB68DBB218460A
:103528001037BD4680BD80B584B000AF7860396083
:1035380050223968786806F0C7F80346FB60FB68D4
:1035480018461037BD4680BD80B584B000AF78609E
:10355800396051223968786806F0B6F80346FB608E
:10356800FB68002B14BF01230023DBB21846103779
:10357800BD4680BD80B586B000AF78603960522204
:103588003968786806F0A0F803463B613A693968FB
:10359800786806F0D1FA0346FB6007F1140307F1D7
:1035A8000C021268114619800233120C1A7000239B
:1035B8003A7D62F307037A7D62F30F23BA7D62F3E3
:1035C800174318461837BD4680BD80B584B000AF94
:1035D8007860396053223968786806F075F80346D0
:1035E800FB60FB68DBB218461037BD4680BD80B56E
:1035F80084B000AF7860396054223968786806F082
:1036080063F80346FB60FB6818461037BD4680BD6B
:1036180080B586B000AF786039605822396878681C
:1036280006F052F803463B613A693968786806F053
:1036380083FA0346FB6007F1140307F10C021268D2
:10364800114619800233120C1A7000233A7D62F376
:1036580007037A7D62F30F23BA7D62F31743184696
:103668001837BD4680BD80B584B000AF786039603A
:1036780059223968786806F027F80346FB60FB682A
:10368800DBB218461037BD4680BD80B584B000AFA8
:10369800786039605A223968786806F015F8034668
:1036A800FB60FB6818461037BD4680BD80B584B006
:1036B80000AF786039605B223968786806F004F8F2
:1036C8000346FB60FB6818461037BD4680BD80B5D1
:1036D80084B000AF786039605C223968786805F09A
:1036E800F3FF0346FB60FB6818461037BD4680BDF4
:1036F80080B584B000AF786039605D223968786839
:1037080005F0E2FF0346FB60FB68DBB218461037A2
:10371800BD4680BD80B584B000AF786039605E2258
:103728003968786805F0D0FF0346FB60FB68DBB2B8
:1037380018461037BD4680BD80B584B000AF7860AC
:1037480039600C223968786805F0BEFF0346FB60D3
:10375800FB6818461037BD4680BD80B584B000AF01
:103768007860396062223968786805F0ADFF0346F1
:10377800FB60FB68DBB218461037BD4680BD80B5DC
:1037880084B000AF7860396069223968786805F0DC
:103798009BFF0346FB60FB68DBB218461037BD464B
:1037A80080BD90B591B002AFF860B9607A607B686F
:1037B800FA681A607B68BA685A607B681A46B96802
:1037C800F86800F0D5FD034687F83730BB68002B52
:1037D80018D097F83730022B14D87B68002283F86A
:1037E8002E207B68002283F82B207B68002283F838
:1037F8002F207B68002283F830207B68002283F822
:1038080031208BE2B968F868FFF796FF02467B68BB
:10381800DA617B6893F82E30002B00F0AF80B9682E
:10382800F868FFF73EFB03461A467B6883F82E20AC
:103838007B6893F82E30022B40F2A080B968F868B4
:10384800FFF704FB03461A4687F82C20C3F3072228
:1038580087F82D20C3F3074387F82E307A687C68F1
:10386800FB6AB968F86800F0ADFD03461A4684F8AB
:103878003220C3F3072284F83320C3F3074384F8C4
:103888003430B968F868FFF7A1FB38633B6B002B4D
:103898000ED03B6BDB7A03F00F03DBB2002B07D0B3
:1038A8007B6838333022396B18461DF0DDF965E046
:1038B800B968F868FFF732FB034603F00F03D9B283
:1038C8007A6892F8433061F3030382F843307B68E7
:1038D80093F8433003F00F03DBB2002B4ED07B6824
:1038E8007A68383332321188927819809A70B968B8
:1038F800F868FFF7E8FA03461A4687F82820C3F362
:10390800072287F82920C3F3074387F82A307A6803
:103918007C68BB6AB968F86800F054FD03461A462B
:1039280084F83D20C3F3072284F83E20C3F30743FD
:1039380084F83F30B968F868FFF702FB0346DAB24B
:103948007B6883F83C20B968F868FFF70AFB0346F0
:10395800DAB27B6883F84120B968F868FFF712FB90
:1039680003461A467B6883F83B20B968F868FFF776
:103978001BFB03461A467B6883F840207B6893F854
:103988002F30002B4AD0B968F868FFF7E3FB0246EE
:103998007B681A677B681B6F002B3FD0B968F86893
:1039A800FFF7C6FB03461A467B6883F82F207B681F
:1039B80093F82F30022B31D9B968F868FFF7DBFB91
:1039C800034603F01F03D9B27A6892F8743061F3A2
:1039D800040382F87430B968F868FFF77EFB034681
:1039E8001A4687F82420C3F3072287F82520C3F353
:1039F800074387F826307A687C687B6AB968F86874
:103A080000F0E0FC03461A4684F86C20C3F3072252
:103A180084F86D20C3F3074384F86E307B6893F80D
:103A28003030002B42D0B968F868FFF7B6FB024681
:103A38007B689A677B689B6F002B37D0B968F868FA
:103A4800FFF7E7FB03461A467B6883F830207B685C
:103A580093F83030022B29D9B968F868FFF7EBFBE7
:103A680002467B68DA67B968F868FFF7A7FB034680
:103A78001A4687F82020C3F3072287F82120C3F3CA
:103A8800074387F822307A687C683B6AB968F86827
:103A980000F098FC03461A4684F87520C3F3072201
:103AA80084F87620C3F3074384F877307B6893F86B
:103AB8002B30002B00F09080B968F868FFF797FA70
:103AC80002467B681A627B681B6A002B00F08480C0
:103AD800B968F868FFF79CFA03461A467B6883F8CA
:103AE8002B207B6893F82B30022B75D97B681B6AD7
:103AF80018460DF07BF80346022B27D1B968F86801
:103B0800FFF7C3FD02467B685A62B968F868FFF799
:103B18007FFD03461A463A77C3F307227A77C3F341
:103B28000743BB777A687C68FB69B968F86800F076
:103B380049FC03461A4684F82820C3F3072284F870
:103B48002920C3F3074384F82A303EE0B968F868AF
:103B5800FFF770FA03461A463A76C3F307227A76D5
:103B6800C3F30743BB76B968F868FFF78EFA0346D4
:103B780087F82F307A6897F82F300093BB69B968B7
:103B8800F86800F06BFC03467B61FA7D7B6883F87C
:103B98002C20BB7D797D3A7D7C68184618F087FB20
:103BA80003461A4684F82820C3F3072284F82920FC
:103BB800C3F3074384F82A30B968F868FFF777FA3F
:103BC80003461A467B6883F82D20B968F868FFF722
:103BD80013FC02467B689A667B6893F83130002BA9
:103BE80057D0B968F868FFF737FB02467B68C3F817
:103BF80084207B68D3F88430002B4AD07B6893F804
:103C08003130022B45D9B968F868FFF794FB0346B1
:103C18001A467B6883F831207B6893F83130022B91
:103C280037D9B968F868FFF728FB02467B68C3F8FC
:103C38008820B968F868FFF731FB02467B68C3F84B
:103C48008C20B968F868FFF73AFB02467B68C3F82E
:103C58009020B968F868FFF743FB03461A463A74A0
:103C6800C3F307227A74C3F30743BB747A687C688A
:103C78003B69B968F86800F0A5FB03461A4684F862
:103C88008020C3F3072284F88120C3F3074384F814
:103C9800823097F83730FC2B40D87B6893F82E3069
:103CA8001A4697F8373002FB03F31B12DAB27B6827
:103CB80083F82E207B6893F82B301A4697F8373014
:103CC80002FB03F31B12DAB27B6883F82B207B68B4
:103CD80093F82F301A4697F8373002FB03F31B127C
:103CE800DAB27B6883F82F207B6893F831301A4664
:103CF80097F8373002FB03F31B12DAB27B6883F8BC
:103D080031207B6893F830301A4697F8373002FB39
:103D180003F31B12DAB27B6883F830203C37BD46C8
:103D280090BD90B587B000AFF860B9607A607B68E5
:103D3800FA681A607B68BA685A60B968F868FFF769
:103D480092FC03461A467B6883F85A207B6893F8EE
:103D58005A30022B69D97B681A46B968F86800F0AE
:103D680007FB0346FB75FB7DFC2B0BD87B6893F8A0
:103D78005A301A46FB7D02FB03F31B12DAB27B684A
:103D880083F85A207B6893F85A30022B4FD9B968C8
:103D9800F868FFF73DFC03461A463A75C3F3072255
:103DA8007A75C3F30743BB757A687C687B69B96821
:103DB800F86800F007FB03461A4684F82C20C3F382
:103DC800072284F82D20C3F3074384F82E30B968FE
:103DD800F868FFF76BFC02467B685A63B968F868B5
:103DE800FFF775FC02467B681A63B968F868FFF745
:103DF8007FFC034603F00703D9B27A6892F85C3077
:103E080061F3020382F85C30B968F868FFF73DFC9B
:103E180002467B689A62B968F868FFF77BFC03463C
:103E28001A467B6883F8582002E000BF00E000BF14
:103E38001C37BD4690BD90B58BB002AFF860B96035
:103E48007A607B68FA681A607B68BA685A60B968F1
:103E5800F868FFF782FA03461A467B6883F8502011
:103E68007B6893F85030022B40F28D807B681A46AD
:103E7800B968F86800F07CFA0346FB77FB7FFC2BF7
:103E88000BD87B6893F850301A46FB7F02FB03F38C
:103E98001B12DAB27B6883F850207B6893F85030A5
:103EA800022B72D97B6800221A637B684FF48072F8
:103EB8005A637B684FF480729A63FB681433184620
:103EC80017F0FEFE0346DA0F13445B101A467B68B0
:103ED8005A64FB681433184617F002FF0346DA0FDA
:103EE80013445B101A467B689A64B968F868FFF750
:103EF80046FA03461A463A76C3F307227A76C3F39C
:103F08000743BB76B968F868FFF764FA0346BB77DE
:103F18007A68BB7F0093BB69B968F86800F09EFABD
:103F280003467B61FA7D7B6883F84F20BB7D797DF2
:103F38003A7D7C68184618F0BAF903461A4684F8A0
:103F48004C20C3F3072284F84D20C3F3074384F8B9
:103F58004E30B968F868FFF74FFA02467B685A6531
:103F6800BB68002B12D0B968F868FFF708FC034655
:103F780003F00F03D9B27A6892F8513061F3030362
:103F880082F8513002E000BF00E000BF2437BD4690
:103F980090BD90B587B000AFF860B9607A607B6873
:103FA800FA681A607B68BA685A60B968F868FFF7F7
:103FB800A8FA03461A467B6883F83C207B6893F886
:103FC8003C30022B73D97B681A46B968F86800F050
:103FD800CFF90346FB75FB7DFC2B0BD87B6893F868
:103FE8003C301A46FB7D02FB03F31B12DAB27B68F6
:103FF80083F83C207B6893F83C30022B59D9B96888
:10400800F868FFF70AFA02467B681A637B681B6B3D
:10401800002B50D0B968F868FFF748FA03461A46EB
:104028003A75C3F307227A75C3F30743BB757A68F9
:104038007C687B69B968F86800F0C4F903461A46D9
:1040480084F82C20C3F3072284F82D20C3F30743F8
:1040580084F82E30B968F868FFF7F0F902467B68F3
:104068005A637B685B6B002B06D0B968F868FFF76A
:10407800F6F902467B689A63B968F868FFF700FAB0
:10408800034619467A6892F83D3061F3000382F8D6
:104098003D307B6893F83D30C3F30003D9B27A68AA
:1040A80092F83D3061F3410382F83D3004E000BFEF
:1040B80002E000BF00E000BF1C37BD4690BD90B5D0
:1040C80087B000AFF860B9607A607B68FA681A60F8
:1040D8007B68BA685A60B968F868FFF724FA02463C
:1040E8007B681A627B681B6A002B5BD0B968F8682A
:1040F800FFF76BFA03461A467B6883F83A207B6819
:1041080093F83A30022B4FD97B681A46B968F86899
:1041180000F02EF90346FB75FB7DFC2B0BD87B6862
:1041280093F83A301A46FB7D02FB03F31B12DAB20E
:104138007B6883F83A207B6893F83A30022B35D9AC
:10414800B968F868FFF716FA03461A463A75C3F3D2
:1041580007227A75C3F30743BB757A687C687B6965
:10416800B968F86800F02EF903461A462277C3F3B7
:1041780007226277C3F30743A377B968F868FFF7A4
:1041880036FA02467B685A63B968F868FFF7DCF9C3
:10419800034619467A6892F83B3061F3000382F8C7
:1041A8003B3004E000BF02E000BF00E000BF1C3766
:1041B800BD4690BD80B58EB000AF786039600023F1
:1041C8007B6339687868FFF747F838633B6B002BE7
:1041D80037D039687868FFF7AEF8034687F82F308C
:1041E80097F82F30022B2CD93B6BDA0F13445B1056
:1041F80001333B6339687868FFF761F802463B6B27
:1042080013443B6339687868FFF737F8B862396850
:104218007868FFF743F878627B6A83EAE372A2EB77
:10422800E372BB6A002BB8BF5B429342B8BF134628
:104238003A6B13443B637A6B3B6B9342B8BF1346AC
:104248007B6339687868FEF7A8FF38623B6A002B01
:1042580015D039687868FEF7DCFF0346FB77FB7FEB
:10426800022B0CD939687868FEF7E5FFB861BA699E
:104278003B6A13447A6B9342B8BF13467B63396831
:104288007868FEF7C1FD786139687868FEF7CDFD7A
:1042980038613A697B699342B8BF1346FB60FB6893
:1042A800002B03DD7A6BFB6813447B637B6B18463A
:1042B8003837BD4680BD80B584B000AF78607B6874
:1042C800002B00D1FEE7786800F028F8F86000239A
:1042D800BB6007F108031A461B21786800F013F940
:1042E8007B689B68002B04D07B689B68BA68DA629D
:1042F80009E0BB68002B06D07868FDF789FB7B686E
:104308009B68BA68DA62BB68FA689A4202D0786831
:1043180002F0F5F900BF1037BD4680BD80B483B008
:1043280000AF78607B689B68002B03D07B689B6834
:10433800DB6A00E0002318460C37BD465DF8047BB5
:10434800704780B483B000AF78607B689B68002BAF
:1043580007D07B689B6893F83330C3F38103DBB2E3
:1043680000E0002318460C37BD465DF8047B704713
:1043780090B585B000AFF860B9607A607B681B695A
:10438800002B16D0BB68002B04D17B681B6993F8FF
:104398004E3013E07B681B6993F84E301C46B968B1
:1043A800F868FFF7DAF9034604FB03F31B12DBB2E4
:1043B80004E0B968F86805F0D6FD034618461437D6
:1043C800BD4690BD80B588B000AFF860B9607A602E
:1043D8003B607B681B69002B0ED07B681B699B6C5C
:1043E8007B61BB68002B0DD07A69B968F86805F065
:1043F8003AFE03467B6105E0B968F86805F06FFE90
:1044080003467B61BB7D797D3A7D184617F04FFFE7
:1044180003461A463A77C3F307227A77C3F307436A
:10442800BB77FB7D1A463968F86918F05BF90346D3
:104438001A463A76C3F307227A76C3F30743BB7664
:1044480000233A7E62F307037A7E62F30F23BA7E73
:1044580062F3174318462037BD4680BD80B588B043
:1044680000AFF860B9607A603B607B681B69002B1D
:104478000ED07B681B699B6C7B61BB68002B0DD0E1
:104488007A69B968F86805F0EEFD03467B6105E0D6
:10449800B968F86805F023FE03467B6197F8283071
:1044A800002B11D0FB7D002B0ED097F82830194631
:1044B800386817F027FE0346FB61F969786918F038
:1044C8003BFA0346BB610DE0FB7D002B02D07B6904
:1044D800BB6107E097F828301946386817F012FED4
:1044E8000346BB6100233A7E62F307037A7E62F3D8
:1044F8000F23BA7E62F31743FA7E62F31F631846EE
:104508002037BD4680BD80B58CB000AFF860B9607B
:104518007A60FB68002B01D1012339E0FB68002B8E
:1045280000D1FEE7FB683B61FB687B61BB68BB6150
:104538000023FB617B683B6297F8283023F0010376
:1045480087F8283097F8283023F0040387F82830B4
:1045580097F8283023F0020387F8283097F8283096
:1045680023F0080387F8283007F11003184618F0DD
:104578004DFA07F11003184600F02FF9034687F8A3
:104588002F3007F11003184618F054FA97F82F3017
:1045980018463037BD4680BD80B584B000AF78601E
:1045A80039607B68002B04D13B681B681B68FB6083
:1045B80006E07B681B68FB6002E0FB681B68FB6029
:1045C800FB68002B03D0FB68DB68002BF5D0FB6889
:1045D800002B01D1012319E0FB68DB68002B01D116
:1045E800012313E03B680022DA60FB68DB68396866
:1045F800F86898470123FB723B681B7E03F00103B0
:10460800DBB2002B01D00023FB72FB7A184610376F
:10461800BD4680BD80B584B000AFF860B9607A60EF
:104628003B60FB68002B00D1FEE7F868FDF7F0F966
:10463800FB689B6803F108003B687A68B96818F062
:10464800FFFA034618461037BD4680BD80B582B0D4
:1046580000AF78607B689B68012B43D07B689B68C0
:10466800022B3FD07B689B68032B3BD07B689B6801
:10467800042B37D07B689B68082B33D07B689B68FA
:10468800092B2FD07B689B680A2B2BD07B689B68F3
:104698000B2B27D07B689B680C2B23D07B689B68EF
:1046A8000E2B1FD07B689B680F2B1BD07B689B68E9
:1046B800102B17D07B689B68112B13D07B689B68E5
:1046C800132B0FD07B689B68142B0BD07B689B68DF
:1046D800152B07D07B689B68182B03D07B689B68D9
:1046E800192B04D1786818F071FB034600E0002309
:1046F80018460837BD4680BD80B582B000AF7860E7
:104708007B689B681D2B13D07B689B681C2B0FD084
:104718007B689B681E2B0BD07B689B68202B07D07F
:104728007B689B681F2B03D07B689B68212B04D177
:10473800786818F04BFB034600E00023184608375A
:10474800BD4680BD80B584B000AF78607B689B684B
:10475800112B0BD1786818F039FBF860FB68002B37
:1047680002D0FB681B6802E0002300E00023184623
:104778001037BD4680BD80B584B000AF78607B68D7
:104788009B68122B0BD1786818F020FBF860FB6847
:10479800002B02D0FB681B6802E0002300E0002326
:1047A80018461037BD4680BD80B584B000AF78602C
:1047B80039607B689B681B2B0BD1786818F006FB67
:1047C800F860FB681A683B689A42B8BF1A46FB68EB
:1047D8001A6000BF1037BD4680BD80B58AB000AFF3
:1047E800786011F04BFBF861FB69002B11D07B68F6
:1047F8001B7E03F00203DBB2002B01D00123B6E0DD
:104808007B681B7E03F00103DBB2002B01D0002381
:10481800ADE07B681B68BB61012387F82730BB6963
:104828009B68002B03D0BB699B68083300E000231A
:104838007B6101227968786918F052F9034687F894
:10484800273097F82730012B06D17B681B7E03F0B1
:104858000203DBB2002B02D097F8273087E0796893
:104868000020FFF799FE034687F8273097F827308E
:10487800012B06D17B681B7E03F00203DBB2002B01
:1048880002D097F8273072E000227968786918F02A
:1048980027F9034687F8273097F82730012B06D1E8
:1048A8007B681B7E03F00203DBB2002B02D097F873
:1048B80027305CE07B681B68184606F0F5FE386117
:1048C8003B69002B0ED0786800F056F80346002BA1
:1048D80008D07B683A691A607868FFF77EFF03465C
:1048E80087F8273097F82730012B02D097F8273020
:1048F8003DE0786800F084F80346002B35D0B869AD
:1049080006F088FFF8607A68137E43F00403137694
:1049180000233B6218E03B6A1946B86906F0D9FEE5
:10492800B860BB68002B0CD07B68BA681A607868DE
:10493800FFF753FF034687F8273097F82730012BF6
:1049480012D13B6A01333B623A6AFB689A420CD245
:1049580097F82730012B08D17B681B7E03F00203F0
:10496800DBB2002BD7D000E000BF97F827301846FD
:104978002837BD4680BD000080B582B000AF7860A2
:104988007B681B7E03F00403DBB2002B01D00023FD
:104998002FE07B689B682B3B012B01D8012328E083
:1049A80000BF7B681B684FF480411846FCF7BEFFC8
:1049B800034683F00103DBB2002B01D0002318E08B
:1049C8007B689B68163B1E2B8CBF01220022D2B24B
:1049D800002A0DD1094A22FA03F303F00103002B40
:1049E80014BF01230023DBB2002B01D0002300E019
:1049F800012318460837BD4680BD00BFF19F78588F
:104A080080B582B000AF78607B681B7E03F0080336
:104A1800DBB2002B01D0002327E07B681B684FF432
:104A280000111846FCF782FF034683F00103DBB24E
:104A3800002B01D0002318E07B689B68163B1E2BD7
:104A48008CBF01220022D2B2002A0DD1094A22FAD3
:104A580003F303F00103002B14BF01230023DBB28F
:104A6800002B01D0002300E0012318460837BD467B
:104A780080BD00BFF19F785880B483B000AF7860E4
:104A880039603B681A687B681A603B685A687B68BB
:104A98005A603B689A687B689A603B68DA687B680A
:104AA800DA6000BF0C37BD465DF8047B704780B5FF
:104AB80084B000AF7860396001223968786804F002
:104AC80003FE0346FB60FB6818461037BD4680BDF1
:104AD80080B584B000AF786039600422396878689E
:104AE80004F0F2FD0346FB60FB6818461037BD462C
:104AF80080BD80B584B000AF786039600522396820
:104B0800786804F0E1FD0346FB60FB68184610373F
:104B1800BD4680BD80B584B000AF786039600222A0
:104B28003968786804F0D0FD0346FB60FB681846D6
:104B38001037BD4680BD80B584B000AF786039605D
:104B480006223968786804F0BFFD0346FB60FB68FD
:104B580018461037BD4680BD80B584B000AF786078
:104B6800396007223968786804F0AEFD0346FB60B7
:104B7800FB6818461037BD4680BD80B584B000AFCD
:104B88007860396008223968786804F09DFD03462A
:104B9800FB60FB6818461037BD4680BD80B584B001
:104BA80000AF7860396009223968786804F08CFDB4
:104BB8000346FB60FB6818461037BD4680BD80B5CC
:104BC80084B000AF786039600A223968786804F0E8
:104BD8007BFD0346FB60FB68DBB218461037BD4619
:104BE80080BD80B584B000AF786039606C223968C8
:104BF800786804F069FD0346FB60FB6818461037C7
:104C0800BD4680BD80B584B000AF786039606D2244
:104C18003968786804F058FD0346FB60FB6818465D
:104C28001037BD4680BD80B584B000AF786039606C
:104C38006E223968786804F047FD0346FB60FB681C
:104C480018461037BD4680BD80B584B000AF786087
:104C580039606F223968786804F036FD0346FB60D6
:104C6800FB6818461037BD4680BD80B584B000AFDC
:104C78007860396070223968786804F025FD034649
:104C8800FB60FB6818461037BD4680BD80B584B010
:104C980000AF7860396071223968786804F014FDD3
:104CA8000346FB60FB6818461037BD4680BD80B5DB
:104CB80084B000AF7860396072223968786804F08F
:104CC80003FD0346FB60FB6818461037BD4680BDF0
:104CD80080B584B000AF7860396010223968786890
:104CE80004F0F2FC0346FB60FB6818461037BD462B
:104CF80080BD80B584B000AF786039601122396812
:104D0800786804F0E1FC0346FB60FB68184610373E
:104D1800BD4680BD80B584B000AF7860396012228E
:104D28003968786804F0D0FC0346FB60FB681846D5
:104D38001037BD4680BD80B584B000AF786039605B
:104D480013223968786804F0BFFC0346FB60FB68EF
:104D580018461037BD4680BD80B584B000AF786076
:104D6800396018223968786804F0AEFC0346FB60A5
:104D7800FB6818461037BD4680BD80B584B000AFCB
:104D88007860396019223968786804F09DFC034618
:104D9800FB60FB6818461037BD4680BD80B584B0FF
:104DA80000AF786039601A223968786804F08CFCA2
:104DB8000346FB60FB6818461037BD4680BD80B5CA
:104DC80084B000AF786039601B223968786804F0D5
:104DD8007BFC0346FB60FB6818461037BD4680BD68
:104DE80080B584B000AF786039603022396878685F
:104DF80004F06AFC0346FB60FB6818461037BD46A2
:104E080080BD80B584B000AF7860396034223968DD
:104E1800786804F059FC0346FB60FB68DBB218466F
:104E28001037BD4680BD80B584B000AF786039606A
:104E380016223968786804F047FC0346FB60FB6873
:104E48009BB218461037BD4680BD80B584B000AF10
:104E58007860396027223968786804F035FC0346A1
:104E6800FB60FB68DBB218461037BD4680BD80B5D5
:104E780086B000AF7860396039687868FFF74AFF14
:104E8800786139687868FFF7ABFF38613968786806
:104E9800FFF7B7FF0346FB73FB7B03F00403002B0C
:104EA80003D07A693B69134400E07B6918461837D8
:104EB800BD4680BD80B586B000AF7860396039687E
:104EC8007868FFF738FF786139687868FFF788FFF6
:104ED800386139687868FFF794FF0346FB73FB7BFA
:104EE80003F00803002B03D07A693B69134400E000
:104EF8007B6918461837BD4680BD80B586B000AFBF
:104F08007860396039687868FFF7E2FE7861396857
:104F18007868FFF765FF386139687868FFF771FFCF
:104F28000346FB73FB7B03F00203002B03D07A6973
:104F38003B69134400E07B6918461837BD4680BDBD
:104F480080B586B000AF7860396039687868FFF757
:104F5800D0FE786139687868FFF742FF38613968B0
:104F68007868FFF74EFF0346FB73FB7B03F00103F2
:104F78003A6903FB02F27B69134418461837BD46A9
:104F880080BD80B584B000AF7860396039687868D2
:104F9800FFF749FEF860FB68012BB8BF01231846EC
:104FA8001037BD4680BD80B584B000AF78603960E9
:104FB80039687868FFF748FEF860FB68012BB8BFCE
:104FC800012318461037BD4680BD80B584B000AFB8
:104FD800F860B9607A60FB68002B00D1FEE7B96819
:104FE800F86800F008F87968F86800F029F800BF58
:104FF8001037BD4680BD80B584B000AF7860396099
:105008007B68002B00D1FEE707F108020023082186
:10501800786804F0BAFB0346FB73FB7B012B03D1D2
:10502800BB683A689A4202D1FB7B002B04D100226C
:105038003968786805F0D2FF00BF1037BD4680BDDB
:1050480080B584B000AF786039607B68002B00D1F0
:10505800FEE707F1080200230921786804F095FBB0
:105068000346FB73FB7B012B03D1BB683A689A426A
:1050780002D1FB7B002B04D100223968786805F047
:10508800BFFF00BF1037BD4680BD000090B587B098
:1050980000AFF860B9607A60BB686FF04042934235
:1050A8000DD17B681B68002B05DAF86801F0D6FC87
:1050B80002467B681A607B681B68BB605AE0BB6865
:1050C80003F0C043B3F1005F54D1BB6823F0C04381
:1050D8006FF0604293424DDAF86806F0E5FA7861BD
:1050E8007B6993F82B3003F00803DBB2002B15D152
:1050F80000217869FFF7DBFC03466FF040429342DA
:105108000CD10021F868FFF7B2FE04460021F868C8
:10511800FFF7D0FE03462344BB602BE0786900F01C
:1051280046FE3861BB6823F0C043B3F1805F06DBFD
:10513800BB6823F0C0426FF070439B1A02E0BB6863
:1051480023F0C0433A6902FB03F30D4A82FB0312C2
:105158005211DB17D31ABB600021F868FFF71EFE57
:1051680004460021F868FFF72AFE03462344BA687C
:10517800D31ABB60BB6818461C37BD4690BD00BF3C
:105188001F85EB5190B587B000AFF860B9607A60C1
:10519800BB686FF0404293420DD17B681B68002BBF
:1051A80005DAF86801F0B6FD02467B681A607B688C
:1051B8001B68BB605AE0BB6803F0C043B3F1005FF3
:1051C80054D1BB6823F0C0436FF0604293424DDA7C
:1051D800F86806F069FA78617B6993F82B3003F078
:1051E8000403DBB2002B15D100217869FFF792FC8C
:1051F80003466FF0404293420CD10021F868FFF754
:105208007CFE04460021F868FFF79AFE0346234413
:10521800BB602BE0786900F0E8FD3861BB6823F0DB
:10522800C043B3F1805F06DBBB6823F0C0426FF078
:1052380070439B1A02E0BB6823F0C0433A6902FB43
:1052480003F30D4A82FB03125211DB17D31ABB601A
:105258000021F868FFF780FD04460021F868FFF791
:105268008CFD03462344BA68D31ABB60BB68184652
:105278001C37BD4690BD00BF1F85EB5180B594B06B
:1052880000AF78607B68002B00D1FEE77B6893F85D
:105298002B3003F00803DBB2002B09D07B6893F8AE
:1052A8002B3003F00403DBB2002B01D000230CE108
:1052B800786806F0F9F978647B6C002B01D100233B
:1052C80003E17B6893F82B3003F00803DBB2002B73
:1052D80004D0786800F047FDF86430E04FF0FF3301
:1052E800FB6000217868FFF7E2FB014607F10C0339
:1052F8001A467868FFF7CAFEF86400217868FFF755
:10530800E7FB014607F10C031A467868FFF7BEFE73
:10531800386400217868FFF7ECFB014607F10C03BD
:105328001A467868FFF7B2FEF863FA6BFB6C934293
:10533800A8BF13463A6C9342B8BF1346FB647B6818
:1053480093F82B3003F00403DBB2002B04D0786809
:1053580000F01BFDB86430E04FF0FF33BB60002164
:105368007868FFF7D7FB014607F108031A46786803
:10537800FFF708FFB86400217868FFF7DCFB0146F7
:1053880007F108031A467868FFF7FCFEB8630021A6
:105398007868FFF7E1FB014607F108031A467868C9
:1053A800FFF7F0FE78637A6BBB6C9342A8BF134695
:1053B800BA6B9342B8BF1346BB64786800F0D3FC5D
:1053C8000246FB6C934208D1786800F0DEFC024686
:1053D800BB6C934201D1002377E0786801F08FF924
:1053E80007F120031946786800F02EFC07F1100336
:1053F8001946786C00F017FD07F1100107F120033A
:105408000022184615F0CCFF034687F8333097F88A
:10541800333083F00103DBB2002B02D0786C03F049
:10542800BDF97B689A69BB6C13445A1E7B681A6283
:1054380000217868FFF709FD0346012B07D17B6837
:10544800DA69FB6CD31A5A1C7B685A6106E07B68E0
:105458005A69FB6C13445A1E7B68DA6107F1200312
:105468001A4631217868FFF74EF87A682A21786C55
:10547800FFF749F8786801F042F97A6892F82A301B
:1054880043F0020382F82A307B68143307F11001D5
:105498000022184615F084FF034687F8323097F843
:1054A8003330002B0AD197F8333083F00103DBB295
:1054B800002B06D097F83230002B02D0786C03F01E
:1054C8006DF97868FEF7F7FE012318465037BD4698
:1054D80080BD80B584B000AFF860B9607A60FB68C1
:1054E800002B00D1FEE7B968F86800F008F8796881
:1054F800F86800F029F800BF1037BD4680BD80B5B8
:1055080084B000AF786039607B68002B00D1FEE77B
:1055180007F1080200230121786804F036F90346F0
:10552800FB73FB7B012B03D1BB683A689A4202D11B
:10553800FB7B002B04D100223968786805F018FD40
:1055480000BF1037BD4680BD80B584B000AF78601D
:1055580039607B68002B00D1FEE707F108020023C1
:105568000221786804F011F90346FB73FB7B012BD9
:1055780003D1BB683A689A4202D1FB7B002B04D165
:1055880000223968786805F017FD00BF1037BD465E
:1055980080BD80B582B000AF786039607B68002B31
:1055A80000D1FEE73B689BB200221946786805F0F7
:1055B80017FE786800F02CF800BF0837BD4680BD9C
:1055C80080B584B000AF786010497868FCF7C7F9F7
:1055D8000346002B01D0002314E0786806F064F835
:1055E800F860FB68002B01D100230BE00021F8686C
:1055F800FFF719FC0346BB60BB68002B01D00123F1
:1056080000E0002318461037BD4680BD01000600A3
:1056180080B584B000AF78607A6892F82A3043F099
:10562800010382F82A30786805F0E3FFF860FA6829
:1056380092F82A3043F0040382F82A30F86805F01B
:10564800F1FFB86000223821B86809F093FA00BF6A
:105658001037BD4680BD000080B584B000AF7860CB
:10566800144B93F86430002B1FD1124B012283F89E
:105678006420786805F0BDFFF86009E0FA6892F8E0
:105688002A3023F0040382F82A30F86801F0F6FB88
:10569800FB6893F82A3003F00403DBB2002BEDD14A
:1056A800044B002283F8642000E000BF1037BD4699
:1056B80080BD00BFB03A002080B584B000AFF8606C
:1056C8007A603B600B46FB72FB7A00221946F86849
:1056D80005F0A8FC3A687968F868FFF776FC00BF1F
:1056E8001037BD4680BD000090B58DB000AFF860A2
:1056F800B9603B601346FB71FB68002B00D1FEE7E5
:10570800F868FFF7A9FFBB68002B03D1F86805F01C
:10571800CBFFB860BB68002B00D1FEE70023FB621B
:105728000023BB62F86805F0BFFF78627B6A002B34
:1057380000D1FEE70021786AFFF799FB3862002163
:10574800786AFFF7DAFBF8610021B868FFF78FFB8A
:10575800B8610021B868FFF7D0FB7861FB79002BAE
:105768000BD10021B868FFF770FB0346012B02D16B
:105778000323FB7101E00123FB71FB79152B00F278
:10578800C48101A252F823F0135B00083B580008BB
:10579800455800087358000891580008AF58000889
:1057A800F15800082359000851590008E957000822
:1057B80093590008A5590008D7590008F959000855
:1057C800075A0008355A0008535A0008655A000855
:1057D800975A0008B95A0008C75A0008F55A00082D
:1057E800B86800F0E4FA0346DA0F13445B101C466D
:1057F800F86800F0B8FA0346DA0F13445B105B420E
:105808002344BA691344FB62B86800F0EEFA034611
:10581800DA0F13445B101C46F86800F0B6FA03462A
:10582800DA0F13445B105B4223447A691344BB626A
:105838006BE1BB69FB627B69BB6266E1B86800F03B
:10584800B6FA0346DA0F13445B101C46F86800F0FA
:105858008AFA0346DA0F13445B105B422344BA69A1
:105868001344FB627B69BB624FE1B86800F09FFAA2
:105878000446F86800F077FA0346E31ABA69134455
:10588800FB627B69BB6240E1BB69FB62B86800F000
:10589800ACFA0446F86800F078FA0346E31A7A6925
:1058A8001344BB6231E1B86800F081FA0346DA0FAD
:1058B80013445B101C46F86800F055FA0346DA0FEB
:1058C80013445B105B422344BA691344FB62B86813
:1058D80000F08BFA0446F86800F057FA0346E31A1A
:1058E8007A691344BB6210E1B86800F060FA0446B4
:1058F800F86800F038FA0346E31ABA691344FB6201
:10590800B86800F072FA0446F86800F03EFA0346F8
:10591800E31A7A691344BB62F7E0BB69FB62B868B3
:1059280000F063FA0346DA0F13445B101C46F8686C
:1059380000F02BFA0346DA0F13445B105B42234452
:105948007A691344BB62E0E0B86800F030FA0446B4
:10595800F86800F008FA0346E31ABA691344FB62D0
:10596800B86800F042FA0346DA0F13445B101C468D
:10597800F86800F00AFA0346DA0F13445B105B423A
:1059880023447A691344BB62BFE00023FB62F868D2
:1059980000F0FBF903465B42BB62B6E0B86800F072
:1059A800E2F90346DA0F13445B101C46F86800F06E
:1059B800DAF90346DA0F13445B105B422344FB62B7
:1059C800F86800F0E2F903465B42BB629DE0B86804
:1059D80000F0C9F90446F86800F0C5F90346E31A6F
:1059E800FB62F86800F0D1F903465B42BB628CE0C9
:1059F8000023FB62B86800F0C8F9B86285E0B868AF
:105A080000F0B1F90346DA0F13445B101C46F8683E
:105A180000F0A9F90346DA0F13445B105B422344F4
:105A2800FB62B86800F0B1F9B8626EE0B86800F0DF
:105A38009AF90446F86800F096F90346E31AFB62FF
:105A4800B86800F0A2F9B8625FE0F86800F08BF976
:105A580003465B42FB620023BB6256E0F86800F035
:105A680082F903465B42FB62B86800F08EF9034690
:105A7800DA0F13445B101C46F86800F086F90346F9
:105A8800DA0F13445B105B422344BB623DE0F868C5
:105A980000F069F903465B42FB62B86800F075F9EB
:105AA8000446F86800F071F90346E31ABB622CE07B
:105AB800B86800F058F9F8620023BB6225E0B868BE
:105AC80000F051F9F862B86800F05FF90346DA0FA0
